:1000000000308A00A02900000A108A100A11820715
:1000100028340C34013406340A108A100A1182077D
:100020000C3400340A108A100A11820754346134E7
:10003000683461342034503461346B347334753433
:100040002034203420342034203420342034203410
:1000500020342034203400340A108A100A11820718
:100060003134303433343034323432343534323461
:1000700039343034203420342034203420342034B7
:100080002034203420342034203400340A108A10E4
:100090000A11820745347234633469347934653423
:1000A0007334203455346E346934763465347234A4
:1000B00073346934743465347334693420340034EF
:1000C0000A108A100A11820745346C3465346B3487
:1000D000743472346F346E3469346B3420344D347C
:1000E000753468342E3420342034203420342034C5
:1000F000203400340A108A100A11820756346F34F3
:100100006C342D3400340A108A100A1182075034DE
:1001100072346534763400340A108A100A1182076A
:1001200050346C346134793400340A108A100A1166
:100130008207533474346F34703400340A108A10D8
:100140000A1182074E3465347834743400340A104E
:100150008A100A11820756346F346C342B34003401
:100160002630840000080319C4280130F800F70184
:10017000F70BB828F80BB7284A30F700F70BBE2862
:1001800000000000800BB52800342D18C928061285
:10019000CA280616831606128312AD18D1288612B5
:1001A000D22886168316861283122D19D928061393
:1001B000DA280617831606138312AD19E128861371
:1001C000E228861783168613000085108312851493
:1001D00000000000831685108312851000348316FA
:1001E0000510831205101330F700F70BF5280000F7
:1001F0000000AA08031901298316051083120514AB
:10020000052983160510831205100000831685103A
:10021000831285102B0EAC000F30AC052C08AD00FE
:10022000C5202B080F39AC00AD00C52000340130CB
:10023000A100831605108312051083168510831202
:1002400085102330A600B020A4012408023C031C22
:1002500031290330AD00C5200530A600B020A40A26
:1002600025290230AD00C520A4012408033C031C4D
:10027000452924080420A500AA012508AB00EF2089
:100280000530A600B020A40A3529CB292708013A59
:1002900003195429033A03195629013A0319592914
:1002A000073A03195C295F29A80161294030A80099
:1002B00061291430A80061295430A8006129A801DF
:1002C000612901302602A80728088038A900AA0160
:1002D0002908AB00EF20003425080C3A03197729D0
:1002E000063A03198129023A031988298D29AA019E
:1002F0000130AB00EF200130A1000230A600B02099
:100300009329A10A0130A6002108A70046219329BC
:10031000AA011030AB00EF2093290130AA00250874
:10032000AB00EF20932900348C1E94291808A000FC
:100330001A08F800A01C9E29181218160000003494
:1003400084011F30830519308316990026309800E8
:1003500090308312980007309F00A0018316010897
:10036000C73908388100831290010030F8009200EC
:10037000003083169200073083129F008316050811
:100380000330F700F70BC22983121F080C138316E2
:100390009F01831217290A30A600B020A401240867
:1003A0000C2000380319D829A40AA5006C21CF29F4
:1003B000A40124080C2000380319E229A40AA5008E
:1003C0006C21D929A40124080C2000380319EC2938
:1003D000A40AA5006C21E329A401240812200038F6
:1003E0000319F629A40AA5006C21ED290130A60005
:1003F0000230A7004621A40124082C20003803194C
:10040000052AA40AA5006C21FC290130A6000330AE
:10041000A7004621A4012408462000380319142A05
:10042000A40AA5006C210B2A0130A6000430A70005
:100430004621A4012408602000380319232AA40AB5
:10044000A5006C211A2A0430A400FA30A600B020BE
:10045000A40B252A8C1E352A94217808A200220894
:10046000A53C031D342A352A2A2A83160515831232
:10047000051D542A8316051583120519532AA40154
:1004800024087A20003803194A2AA40A0C1E462A96
:100490009900402A0D300C1E4B2A99000A300C1E80
:1004A0004F2A9900542A3A2A831685158312851DEE
:1004B000732A8316851583128519722AA4012408CC
:1004C000832000380319692AA40A0C1E652A9900A2
:1004D0005F2A0D300C1E6A2A99000A300C1E6E2A03
:1004E0009900732A592A831605168312051E922A2B
:1004F000831605168312051A912AA40124088C205C
:1005000000380319882AA40A0C1E842A99007E2A1E
:100510000D300C1E892A99000A300C1E8D2A990074
:10052000922A782A831685168312851EB12A83168D
:1005300085168312851AB02AA40124089520003854
:100540000319A72AA40A0C1EA32A99009D2A0D307C
:100550000C1EA82A99000A300C1EAC2A9900B12A58
:10056000972A831606148312061CD02A83160614B3
:1005700083120618CF2AA40124089E2000380319EC
:10058000C62AA40A0C1EC22A9900BC2A0D300C1ED1
:10059000C72A99000A300C1ECB2A9900D02AB62A05
:1005A000831686158312861DEF2A831686158312FD
:1005B0008619EE2AA4012408A72000380319E52A89
:1005C000A40A0C1EE12A9900DB2A0D300C1EE62A33
:1005D00099000A300C1EEA2A9900EF2AD52A8C1EAF
:1005E0001D2B94217808A2002208A13A0319022B9E
:1005F000033A0319072B013A03190D2B073A031984
:10060000132B192B0130A600A70046211D2B01300A
:10061000A6000230A70046211D2B0130A6000330A2
:10062000A70046211D2B0130A6000430A70046215B
:0E0630001D2B2208A5006C211D2B352A63000E
:02400E00583F19
:00000001FF
;PIC16F628
