:1000000000308A009D2900000A108A100A11820718
:1000100028340C34013406340A108A100A1182077D
:100020000C3400340A108A100A11820754346134E7
:10003000683461342034503461346B347334753433
:100040002034203420342034203420342034203410
:1000500020342034203400340A108A100A11820718
:100060003134303433343034323432343534323461
:1000700039343034203420342034203420342034B7
:100080002034203420342034203400340A108A10E4
:100090000A11820745347234633469347934653423
:1000A0007334203455346E346934763465347234A4
:1000B00073346934743465347334693420340034EF
:1000C0000A108A100A11820745346C3465346B3487
:1000D000743472346F346E3469346B3420344D347C
:1000E000753468342E3420342034203420342034C5
:1000F000203400340A108A100A11820756346F34F3
:100100006C342D3400340A108A100A1182075034DE
:1001100072346534763400340A108A100A1182076A
:1001200050346C346134793400340A108A100A1166
:100130008207533474346F34703400340A108A10D8
:100140000A1182074E3465347834743400340A104E
:100150008A100A11820756346F346C342B34003401
:1001600025308400831300080319C4280130F800E7
:10017000F701F70BB928F80BB8284A30F700F70B4E
:10018000BF28C228800BB62800342C18C9280612B4
:10019000CA280616831606128312AC18D1288612B6
:1001A000D22886168316861283122C19D928061394
:1001B000DA280617831606138312AC19E128861372
:1001C000E228861783168613000085108312851493
:1001D000E9288316851083128510003483160510D4
:1001E000831205101330F700F70BF428F728A9083D
:1001F0000319FF288316051083120514032983169B
:1002000005108312051000008316851083128510D7
:100210002A0EAB000F30AB052B08AC00C5202A0816
:100220000F39AB00AC00C52000340130A1008316AB
:100230000510831205108316851083128510233054
:10024000A500B020A3012308023C031C2F29033082
:10025000AC00C5200530A500B020A30A2329023038
:10026000AC00C520A3012308033C031C4329230839
:100270000420A400A9012408AA00EE200530A5004E
:10028000B020A30A3329C9292608013A03195229A3
:10029000033A03195429013A03195729073A031954
:1002A0005A295D29A7015F294030A7005F29143032
:1002B000A7005F295430A7005F29A7015F290130FB
:1002C0002502A70727088038A800A9012808AA0046
:1002D000EE20003424080C3A03197529063A031954
:1002E0007F29023A031986298B29A9010130AA0026
:1002F000EE200130A1000230A500B0209129A10A12
:100300000130A5002108A60044219129A90110303F
:10031000AA00EE2091290130A9002408AA00EE20AD
:10032000912900348C1E92291808A0001A08F800A0
:10033000A01C9C29181218160034840183131F3046
:100340008305193083169900A630980090308312E7
:10035000980007309F00A00183160108C7390838AC
:100360008100831290010030F80092000030831663
:100370009200073083129F00831605080330F700B0
:10038000F70BC02983121F080C1383169F018312D9
:100390001529A30123080C2000380319D329A30A27
:1003A000A4006A21CA29A4006A210130A500A60080
:1003B0004421A3012308122000380319E329A30ACA
:1003C000A4006A21DA29A4006A210130A5000230C4
:1003D000A6004421A30123082C2000380319F42986
:1003E000A30AA4006A21EB29A4006A210130A50018
:1003F0000330A6004421A301230846200038031936
:10040000052AA30AA4006A21FC29A4006A2101305C
:10041000A5000430A6004421A30123086020003871
:100420000319162AA30AA4006A210D2AA4006A212E
:100430000430A300FA30A500B020A30B1A2A8C1EAA
:10044000382A92217808A2002208A53C03192A2AFA
:1004500000302B2A0130A3002208253C0319322A40
:100460000030332A013023040319372A382A1F2A7F
:10047000831605158312051D572A83160515831249
:100480000519562AA30123087A20003803194D2A9A
:10049000A30A0C1E492A9900432A0D300C1E4E2A2D
:1004A00099000A300C1E522A9900572A3D2A8316B9
:1004B00085158312851D762A831685158312851965
:1004C000752AA30123088320003803196C2AA30A84
:1004D0000C1E682A9900622A0D300C1E6D2A9900A4
:1004E0000A300C1E712A9900762A5C2A831605169A
:1004F0008312051E952A831605168312051A942A5F
:10050000A30123088C20003803198B2AA30A0C1E90
:10051000872A9900812A0D300C1E8C2A99000A30F6
:100520000C1E902A9900952A7B2A83168516831221
:10053000851EB42A831685168312851AB32AA30151
:100540002308952000380319AA2AA30A0C1EA62AFC
:100550009900A02A0D300C1EAB2A99000A300C1EFF
:10056000AF2A9900B42A9A2A831606148312061C0D
:10057000D32A8316061483120618D22AA30123084D
:100580009E2000380319C92AA30A0C1EC52A990007
:10059000BF2A0D300C1ECA2A99000A300C1ECE2A22
:1005A0009900D32AB92A831686158312861DF22A4A
:1005B0008316861583128619F12AA3012308A72022
:1005C00000380319E82AA30A0C1EE42A9900DE2A3F
:1005D0000D300C1EE92A99000A300C1EED2A9900F4
:1005E000F22AD82A8C1E232B92217808A2002208F6
:1005F0007F39213A0319062B033A03190B2B013AD1
:100600000319112B073A0319172B1D2B0130A500D5
:10061000A6004421232B0130A5000230A60044216E
:10062000232B0130A5000330A6004421232B0130E9
:10063000A5000430A6004421232B22087F39A30003
:0A064000A4006A21232B382A63006E
:02400E00503F21
:00000001FF
;PIC16F628
