:1000000000308A007A2800000A108A100A1182073C
:100010002F34303433343A343534313420342034CE
:100020002034203420343134393432346B340034C9
:100030007D08F8017C02031820287C08F7002C2892
:10004000F7010830FE00FC0DF70D7D08770203185C
:10005000F700F80DFE0B2328003478087508FC0023
:100060006430FD0018207708F50078083030031D53
:100070004028F61C4828F6194828761A20304328CC
:10008000F61176127614F80778080C1E45289900A8
:100090007508FC000A30FD0018207708F500780884
:1000A0003030031D5928F6195E28761C5E28761A12
:1000B0002030F80778080C1E5B2899003030F507CF
:1000C00075080C1E61289900003476308400000801
:1000D000031979280130F800F701F70B6D28F80BA8
:1000E0006C284A30F700F70B732800000000800BE3
:1000F0006A283E2984011F30830519308316990030
:100100002630980090308312980007309F00A1019C
:10011000A130A2004130A3006C30A4006130A500E2
:100120006E30A6006930A7007330A8002030A90007
:100130004D30AA006F30AB007230AC006930AD00BA
:100140007330AE006530AF007430B000B100653080
:10015000B2002030B300B400B500B600A230B70042
:100160004930B8007230B9006F30BA006E30BB0051
:100170006930BC006330BD002030BE00BF00C0004D
:10018000C100C200C300C400C500C600C700C8004B
:10019000C900CA00A330CB00A430CC004D30CD0044
:1001A0006530CE006D30CF003A30D0003530D10010
:1001B0003430D2002530D3002030D400D500D60012
:1001C000D700D800D9004330DA005030DB0055307A
:1001D000DC003A30DD003230DE003530DF00253023
:1001E000E000A530E100E201E301E401E501E60100
:1001F000E701E801E901EA01EB01EC01ED01EE01A3
:10020000EF01F001F201F3010C1E5E2921307107AC
:1002100084000008F50075080C1E0C299900213097
:10022000710784000008A33C031D2F297308F50003
:100230000130F6002D203A300C1E1C29990072085E
:10024000F5000130F6002D20F50175080420003876
:1002500003192F29F50A0C1E2B29990025290C12A8
:100260000130F1072130710784000008A53C031D0F
:100270005E290530F500BE30F6006528F50B3B29F8
:100280000130F20772083C3C031D4929F20101309C
:10029000F3077308033C03194F290030502901303C
:1002A000F5007208333C03195729003058290130F2
:1002B000750503195D29F301F201F10104296300B9
:02400E00183F59
:00000001FF
;PIC16F628
